S0120000426F425F4A61727669732E7372656351
S1130000EDC000000AC100000C94A73B0C94523BC5
S113001004C1000002C1000000C10000FEC00000D5
S1130020FCC00000FAC00000F8C00000F6C00000E8
S1130030F4C00000F2C00000F0C00000EEC00000F8
S1130040ECC00000EAC000000C94133BE6C00000C2
S1130050A9C20000E2C00000E0C00000DEC0000051
S1130060DCC00000DAC00000D8C00000D6C0000028
S1130070D4C00000D2C00000D0C00000CEC0000038
S1130080CCC00000CAC00000C8C00000E50AD10A04
S1130090D10AD10AD10AD10AD10AE30AD10AD10A72
S11300A0D10AD10AD10ACF0AF10AD30AD50AD70A4A
S11300B0D90ADB0ADD0ADF0AE10AD10AD10AD10A28
S11300C0D10AD10AD10AD10AE70AE90AEB0AED0AF0
S11300D0BD1FC71FD11FDB1FE51FEF1FF91F032023
S11300E04C20562060206A2074207E208820922094
S11300F0943997399C39A139A639AB39AF39B43918
S1130100B939BE39C239C639CB39D039D439D839DD
S1130110DC39E039E439E839ED39F039F339F739C4
S1130120F939FD39003A063A0C3A163A203A2A3A95
S1130130343A3E3A483A4C3A543A5C3A643A6C3A65
S1130140743A7C3A843A4142434445464748494AD2
S11301504B4C4D4E4F505152535455565758595A73
S11301606162636465666768696A6B6C6D6E6F7003
S11301707172737475767778797A303132333435B5
S113018036373839402E5F2D200030313233343544
S11301903637383920004142434445464748494AA6
S11301A04B4C4D4E4F505152535455565758595A23
S11301B03031323334353637383920000101010506
S11301C0051515151F150E04040404040A0A1F1F3F
S11301D01F0E04030E1F111F1F111F0011241FBE29
S11301E0CFEFD0E4DEBFCDBF10E1A0E0B1E0ECE49E
S11301F0FCE900E00BBF02C007900D92AE35B107D9
S1130200D9F727E1AEE5B0E101C01D92AC30B207E9
S1130210E1F70E943D3C0C94244EF2CE87B18062FB
S113022087B988B18F7D88B9089587B18F7D87B9E3
S113023088B1806288B9089587B1806487B988B12C
S11302408F7B88B9089587B18F7B87B988B1806423
S113025088B9089585B1816085B98DE08A95F1F7F3
S1130260000085B18E7F85B987EC90E00197F1F7A6
S113027000C00000089595B19F7095B980FF03C038
S113028095B1906195B981FF03C095B1906295B91C
S113029082FF03C095B1906495B983FF03C085B113
S11302A0806885B9D7CF0895CF93C82F85B18D7F46
S11302B085B98C2F82958F70DEDF8C2F8F70DBDFFA
S11302C08FE99FE00197F1F700C00000CF910895F6
S11302D0CF93C82F85B1826085B98C2F82958F709A
S11302E0CADF8C2F8F70C7DF8FE99FE00197F1F78A
S11302F000C00000CF91089584B1836F84B98AB19E
S113030082608AB98FE39CE90197F1F700C000008D
S113031085B18D7F85B983E0AEDF8FE097E20197E9
S1130320F1F700C0000083E0A6DF8FE891E00197B9
S1130330F1F700C0000083E09EDF8FE891E00197B1
S1130340F1F700C0000082E096DF88E2ADDF8CE0C8
S1130350ABDF86E0A9DF81E0A7CF089581E0A4CFD9
S11303600895811104C080E8860F9ECF089580EC23
S1130370860F9ACF0895CF93DF93EC0102C02196A4
S1130380A7DF88818111FBCFC0E0D0E003C080E209
S11303909FDF2196C031D105D4F3DF91CF91089529
S11303A00F931F93CF938C01C0E002C091DFCF5F06
S11303B0F801EC0FF11D8081882331F0C031B0F3D6
S11303C003C080E285DFCF5FC031D8F3CF911F91A6
S11303D00F910895CF93DF93D82FCDEC8C9FC12D2F
S11303E01124C695C695C69580E38C0F71DFCC0F9A
S11303F08C2F880F880FC80F8D2F8C1B805D68DFB2
S1130400DF91CF910895CF93C0E003C080E260DF15
S1130410CF5FC031D8F3CF9108950F931F93CF933B
S1130420883088F48B0190E00896880F880F880F35
S11304303BDFC0E006C0F801EC0FF11D849148DFFA
S1130440CF5FC830C0F3CF911F910F910895E1ECB5
S1130450F0E010821092C50083E38093C40086E02C
S11304608093C20088E1808384B1886084B985B1B7
S1130470877F85B90895CF93C82F0E94474A882360
S1130480A9F085B1886085B98091C00085FFFCCF53
S1130490E0ECF0E0808180648083C093C6008091AA
S11304A0C00086FFFCCF85B1877F85B9CF910895C1
S11304B0CF93DF93EC010E94474A8823D1F185B1A1
S11304C0886085B98FEC97E00197F1F700C00000D0
S11304D014C0E0ECF0E08081806480838091C000EF
S11304E085FFFCCF9E012F5F3F4F88818093C6001C
S11304F08091C00086FFFCCFE90188818111E9CF9A
S11305008091C00085FFFCCF8091C00086FFFCCFA6
S11305108091C00085FFFCCF8091C00086FFFCCF96
S11305208FE19EE40197F1F700C0000085B1877F59
S113053085B9DF91CF910895CF93DF93EC010E94A9
S1130540474A811103C005C0219695DF8881811136
S1130550FBCFDF91CF910895CF93DF93EC010E94FD
S1130560474A882331F0CE01A3DF8DE084DF8AE09F
S113057082DFDF91CF910895109278111092771154
S1130580109276111092751108951092CD0083E3A4
S11305908093CC0088E98093C90086E08093CA00E8
S11305A0EBCF08951F920F920FB60F9211240BB642
S11305B00F922F934F935F938F939F93EF93FF9398
S11305C02091CE0080917E1190917F118336910508
S11305D0FCF4AC014F5F5F4F50937F1140937E1149
S11305E0FC01EC56FE4E2083222321F02D3011F025
S11305F02A3071F4FA01EC56FE4E108281E090E04C
S113060090937D1180937C1110927F1110927E1132
S1130610FF91EF919F918F915F914F912F910F9047
S11306200BBE0F900FBE0F901F901895982F9295A8
S11306309F70990F292F220F220F920F8F70890F0D
S11306400895843690F49DEC899F912D11249695FC
S113065096959695292F2295207F990F392F330F40
S1130660330F930F891B822B089580E00895DDDDFD
S1130670EADDD4DDE1CD0895D1DDE5DDD6CD089503
S1130680CF93DF93D82FC0E009C0DD2314F4CDDD70
S113069001C0C4DDD8DDD0DDDD0FCF5FC830A8F3E5
S11306A0C4DDD1DDC9DDDF91CF9108951F93CF93D0
S11306B0DF93182FBADDD0E0C0E006C0DD0FC3DD44
S11306C03599D160B9DDCF5FC830C0F3113011F472
S11306D0A5DD01C0AADDB7DDAFDDA7DD8D2FDF917C
S11306E0CF911F910895CF93C82FC1DF80EDC8DF4C
S11306F08C2FC6DFBCDF81EDC3DF80E0D7DFC82FDE
S1130700BBDF8C2FCF910895CF93DF93D82FC62FC3
S1130710AEDF80EDB5DF8D2FB3DF8C2FB1DFACDF23
S1130720DF91CF910895CF93A2DF81E7A9DF80E025
S1130730BDDFC82FA1DF8C2FCF910895CF93C82F91
S113074096DF80E79DDF8C2F9BDF96DF8FE19EE4B1
S11307500197F1F700C00000CF910895CF9387DF90
S113076083E78EDF80E0A2DFC82F86DF8C2FCF9156
S11307700895CF93C82F7BDF83E782DF8C2F80DF40
S11307807BDF8FE19EE40197F1F700C00000CF9179
S11307900895CF93DF93C82FD92F69DF80EA70DFE4
S11307A08D2F6EDF8C2F6CDF62DF81EA69DF80E0E2
S11307B07DDFC82F61DF8C2FDF91CF91089587E013
S11307C093E0E7CF0895CF93C82FF9DF882331F062
S11307D08091C80085FFFCCFC093CE00CF910895CF
S11307E0CF93DF93EC01EBDF811103C005C0EBDF96
S11307F0219688818111FBCFDF91CF910895DC018F
S113080020E030E007C09081F901E058FE4E90836B
S11308102F5F3F4F2417350744F4F901E60FF71F04
S1130820EA0FFB1F90819111EECFF901E058FE4EC3
S1130830108286EB91E0D4DF80E891E1D1DF88EB90
S113084091E0CECF0895CF93DF93EC01B8DF81110F
S113085003C005C02196B7DF88818111FBCFDF91EA
S1130860CF9108951F93CF93DF93D82F192FC62FBD
S1130870FEDE80EA05DF812F03DF8D2F01DF8C2F61
S1130880FFDEFADEDF91CF911F910895EF92FF9280
S11308900F931F93CF93DF93EB016CE270E084E935
S11308A091E10E940D4B8C01892B81F440C0908111
S11308B080ED890F8A3040F4660F862F880F880FE9
S11308C0680F960F60ED690F319603C0E4E9F1E11A
S11308D060E0E017F10758F38FEF860F8A3038F5A0
S11308E070E06150710962957295707F7627607F20
S11308F076277B01EC0EFD1E0F5F1F4FC0E006C084
S113090060E2C7018C0F911DADDFCF5FC031C0F332
S1130910D0E007C0C7018D0F911DA4DF0F5F1F4FEB
S1130920DF5FF8016081662311F0DF3098F3DF9117
S1130930CF911F910F91FF90EF90089582E0D3DE45
S113094075CE089581E0CFDE71CE089580E0CBDED0
S11309506DCE089584E0C7DE69CE089585E0C3DED8
S113096065CE089586E0BFDE61CE08956ADE682F05
S113097080E0CACE089565DE682F81E0C5CE089573
S113098060DE682F82E0C0CE08955BDE682F84E0CD
S1130990BBCE089556DE682F85E0B6CE089551DEAD
S11309A0682F86E0B1CE08958FEFC8CE08958FE00A
S11309B0C5DEB9DE807F803F11F081E0089580E0DC
S11309C008950F931F93CF93C0E03EC00C2F10E007
S11309D081E090E00C2E02C0880F991F0A94E2F780
S11309E08095ACDEA0DE982F907F903F61F184FD6E
S11309F009C0000F111F000F111FF801E95FFF4E1E
S1130A00808126C085FD09C0000F111F000F111F32
S1130A10F801E95FFF4E81811BC086FD09C0000F0C
S1130A20111F000F111FF801E95FFF4E828110C0F2
S1130A3099234CF0000F111F000F111FF801E95FFB
S1130A40FF4E838105C0CF5FC43008F4BFCF8FEF62
S1130A50CF911F910F910895AADF882341F08FE36E
S1130A609CE90197F1F700C00000ABCF08958FEF28
S1130A700895EF92FF920F931F93CF93DF93CDB717
S1130A80DEB7A0970FB6F894DEBF0FBECDBF80B11E
S1130A9091E0282F227081FF90E0E92E80911001CF
S1130AA09817C9F1222361F08EE0E2EEF1E0DE0155
S1130AB0119601900D928A95E1F7109238110CC0AD
S1130AC08EE0E0EFF1E0DE01119601900D928A953F
S1130AD0E1F781E08093381185B1886085B9F12C04
S1130AE00AC0C9DCE1E0F0E0EC0FFD1FE00FF11FEC
S1130AF0808169DEF3940F2D10E0E1E0F0E0EC0F6B
S1130B00FD1FE00FF11F80818111EBCF85B1877F3D
S1130B1085B9E0921001A0960FB6F894DEBF0FBE1F
S1130B20CDBFDF91CF911F910F91FF90EF9008956A
S1130B30EF92FF920F931F93CF93DF93CDB7DEB75E
S1130B40A0970FB6F894DEBF0FBECDBF80B191E081
S1130B50282F207184FF90E0E92E80910F019817CF
S1130B60C9F1222361F08EE0EEEFF1E0DE0111968F
S1130B7001900D928A95E1F7109237110CC08EE026
S1130B80ECE0F2E0DE01119601900D928A95E1F716
S1130B9081E08093371185B1886085B9F12C0AC052
S1130BA06ADCE1E0F0E0EC0FFD1FE00FF11F808153
S1130BB00ADEF3940F2D10E0E1E0F0E0EC0FFD1FEE
S1130BC0E00FF11F80818111EBCF85B1877F85B95B
S1130BD0E0920F01A0960FB6F894DEBF0FBECDBF12
S1130BE0DF91CF911F910F91FF90EF900895EF92B5
S1130BF0FF920F931F93CF93DF93CDB7DEB7A097E8
S1130C000FB6F894DEBF0FBECDBF80B191E0282FA0
S1130C10287083FF90E0E92E80910E01981709F463
S1130C203EC0222379F08DE0EAE1F2E0DE01119684
S1130C3001900D928A95E1F710923C1181E0809326
S1130C403B110EC08DE0E7E2F2E0DE011196019067
S1130C500D928A95E1F781E080933C1110923B114B
S1130C6085B1886085B9F12C0AC005DCE1E0F0E0CB
S1130C70EC0FFD1FE00FF11F8081A5DDF3940F2D14
S1130C8010E0E1E0F0E0EC0FFD1FE00FF11F8081C8
S1130C908111EBCF85B1877F85B9E0920E01A096D3
S1130CA00FB6F894DEBF0FBECDBFDF91CF911F9179
S1130CB00F91FF90EF900895FF920F931F93CF939E
S1130CC0DF93CDB7DEB7A0970FB6F894DEBF0FBEA3
S1130CD0CDBF80913A1190910D018917B1F188230C
S1130CE051F08BE0E4E3F2E0DE01119601900D9205
S1130CF08A95E1F709C08BE0EFE3F2E0DE0111969B
S1130D0001900D928A95E1F785B1886085B9F12C3F
S1130D100AC0B1DBE1E0F0E0EC0FFD1FE00FF11FD2
S1130D20808151DDF3940F2D10E0E1E0F0E0EC0F51
S1130D30FD1FE00FF11F80818111EBCF85B1877F0B
S1130D4085B980913A1180930D01A0960FB6F8945D
S1130D50DEBF0FBECDBFDF91CF911F910F91FF90EA
S1130D600895FF920F931F93CF93DF93CDB7DEB710
S1130D70A0970FB6F894DEBF0FBECDBF80919D1033
S1130D80811108C08091391180930C0181E0809316
S1130D909D1040C080913A1181113CC0809139115D
S1130DA090910C018917B1F1882351F08FE0EAE4A6
S1130DB0F2E0DE01119601900D928A95E1F709C0E7
S1130DC08FE0E9E5F2E0DE01119601900D928A953B
S1130DD0E1F785B1886085B9F12C0AC04CDBE1E00C
S1130DE0F0E0EC0FFD1FE00FF11F8081ECDCF394C9
S1130DF00F2D10E0E1E0F0E0EC0FFD1FE00FF11F1C
S1130E0080818111EBCF85B1877F85B980913911BC
S1130E1080930C01A0960FB6F894DEBF0FBECDBF31
S1130E20DF91CF911F910F91FF900895EF92FF9260
S1130E300F931F93CF93DF93CDB7DEB7A0970FB671
S1130E40F894DEBF0FBECDBFE090341180910B014A
S1130E50E81609F43EC0EE2079F08BE0E8E6F2E013
S1130E60DE01119601900D928A95E1F781E080935D
S1130E703411109233110EC08BE0E3E7F2E0DE018F
S1130E80119601900D928A95E1F71092341181E048
S1130E908093331185B1886085B9F12C0AC0EBDAEF
S1130EA0E1E0F0E0EC0FFD1FE00FF11F80818BDC2F
S1130EB0F3940F2D10E0E1E0F0E0EC0FFD1FE00FE4
S1130EC0F11F80818111EBCF85B1877F85B9E092D5
S1130ED00B01A0960FB6F894DEBF0FBECDBFDF9115
S1130EE0CF911F910F91FF90EF900895EF92FF9291
S1130EF00F931F93CF93DF93CDB7DEB7A0970FB6B1
S1130F00F894DEBF0FBECDBFE090361180910A0188
S1130F10E81609F43EC0EE2079F08CE0EEE7F2E04A
S1130F20DE01119601900D928A95E1F781E080939C
S1130F303611109235110EC08CE0EAE8F2E0DE01C1
S1130F40119601900D928A95E1F71092361181E085
S1130F508093351185B1886085B9F12C0AC08BDA8C
S1130F60E1E0F0E0EC0FFD1FE00FF11F80812BDCCE
S1130F70F3940F2D10E0E1E0F0E0EC0FFD1FE00F23
S1130F80F11F80818111EBCF85B1877F85B9E09214
S1130F900A01A0960FB6F894DEBF0FBECDBFDF9155
S1130FA0CF911F910F91FF90EF9008951F93CF93CE
S1130FB0DF93CDB7DEB7A0970FB6F894DEBF0FBEB0
S1130FC0CDBF109145112FEF89E698E12150804063
S1130FD09040E1F700C0000080910901181761F109
S1130FE0112351F08CE0E6E9F2E0DE011196019064
S1130FF00D928A95E1F709C08CE0E2EAF2E0DE01A5
S1131000119601900D928A95E1F785B1886085B9B2
S1131010CE0101964DDACE010196E2DB2FEF89E68F
S113102098E1215080409040E1F700C0000085B174
S1131030877F85B910930901A0960FB6F894DEBF97
S11310400FBECDBFDF91CF911F910895CF9385B18E
S1131050886085B9C0E029C08EEA92E0C1DB81E3F3
S11310608C0FB1DB8AE3AFDB8C2F90E00A9691DB27
S1131070813041F018F0823049F00CC084EB97E0E5
S1131080E2DB0BC08DEF93E0DEDB07C089E094E088
S1131090DADB03C085E194E0D6DB8DE094DB8AE003
S11310A092DB85B1877F85B9CF5FC830A8F2CF9135
S11310B00895FF920F931F93CF93DF93CDB7DEB7BD
S11310C064970FB6F894DEBF0FBECDBF85B18860BC
S11310D085B9F12C80C00F2D10E0F801E75AFE4EBF
S11310E09081F801EF5FFE4F8081981709F472C078
S11310F085B1886085B98AE5898381E38F0D8A8308
S11311008AE38B83F801E75AFE4E8081823089F1AD
S113111028F4882351F0813001F14EC0843009F461
S113112040C098F1853069F047C08EE48C838FE429
S11311308D8382E58E838DE48F838DE08887198685
S11311403BC081E48C8383E48D8384E58E8386E5D0
S11311508F838DE0888719862FC084E58C8382E590
S11311608D8389E48E8387E48F838DE08887198655
S113117023C08FE48C8380E58D8385E48E838EE4A5
S11311808F838DE08887198617C083E58C8388E474
S11311908D8382E58E8384E58F838DE0888719862D
S11311A00BC089E48C8383E58D838FE48E838CE488
S11311B08F838DE088871986CE01019611DB85B176
S11311C0877F85B9F801E75AFE4E8081F801EF5F09
S11311D0FE4F8083F39487E08F1508F07CCF85B1B0
S11311E0877F85B964960FB6F894DEBF0FBECDBF76
S11311F0DF91CF911F910F91FF900895CF93DF93CB
S113120060E082E290E02EDB61E08AE090E02ADB9D
S113121061E08BE090E026DB61E08CE090E022DB93
S113122061E08DE090E01EDB61E08EE090E01ADB8F
S113123062E08FE090E016DB62E080E190E012DB98
S113124060E081E190E00EDB61E082E190E00ADBA6
S113125061E083E190E006DB61E084E190E002DBA1
S113126061E085E190E0FEDA61E086E190E0FADA9F
S113127061E087E190E0F6DA61E088E190E0F2DA9B
S113128061E089E190E0EEDA60E081E390E0EADA9F
S113129060E082E390E0E6DA60E083E390E0E2DAA3
S11312A060E084E390E0DEDA60E085E390E0DADA9F
S11312B060E086E390E0D6DA60E087E390E0D2DA9B
S11312C060E088E390E0CEDA60E089E390E0CADA97
S11312D060E08AE390E0C6DA60E08BE390E0C2DA93
S11312E060E08CE390E0BEDA60E08DE390E0BADA8F
S11312F060E08EE390E0B6DA60E08FE390E0B2DA8B
S113130060E080E490E0AEDA64E181E290E0AADAA1
S113131064E185E290E0A6DA6AE081E090E0A2DA96
S113132060E082E090E09EDA62E183E090E09ADAA5
S113133060E084E090E096DA6AE087E290E092DA96
S113134060E089E290E08EDA62E188E290E08ADA95
S113135060E08AE290E086DA60E089E090E082DA98
S113136060E08EE992E07EDA60E087E093E07ADA8A
S113137060E088E093E076DAC0E0D0E006C060E2A6
S1131380CE01805E9C4F6EDA2196C03AD105B8F347
S1131390C0E0D0E006C060E2CE0180549C4F62DA27
S11313A02196C032D105B8F3DF91CF91089585B16C
S11313B0886085B987E390E1BFD88FE39CE9019702
S11313C0F1F700C0000085B1877F85B998E088E116
S11313D00FB6F894A895809360000FBE90936000B8
S11313E0FFCF0E94AE0184EB92E00E94D00180EC1A
S11313F00E94540186EC92E00E94D0012FEF8DE30D
S113140099E4215080409040E1F700C00000F6DEEE
S11314100E94AE0184EB92E00E94D00180EC0E9415
S1131420540188ED92E00E94D001C1DF95B198602B
S113143095B9811109C08FE41ED88BE41CD88DE0C6
S11314401AD88AE018D808C08FE4BDD98BE4BBD978
S11314508DE0B9D98AE0B7D985B1877F85B9089578
S11314601F93CF93DF93883008F04BC0142FC62FFF
S1131470D82F8AE08D0F663449F018F4643451F0A3
S113148040C0693479F06E3449F03BC060E090E0CC
S1131490E9D911C061E090E0E5D90DC062E090E0C7
S11314A0E1D909C063E090E0DDD9ED2FF0E0E75A1F
S11314B0FE4E84E0808385B1886085B9111111C026
S11314C08AE50E943B0281E38D0F0E943B028C2F30
S11314D00E943B028DE00E943B028AE00E943B0294
S11314E00BC08AE570D981E38D0F6DD98C2F6BD930
S11314F08DE069D98AE067D985B1877F85B9812F65
S113150095DFDF91CF911F91089585B1877F85B9CC
S113151022C08091C6008D3021F08A3011F08111F3
S11315200BC0E0919A10EE2321F0F0E0E556F94E5D
S1131530108210929A100FC0E0919A10E13348F48F
S113154091E09E0F90939A10F0E0E556F94E808357
S113155002C010929A108091C0008823D4F208959A
S113156040E050E00AC02F5F3F4F02C020E030E06F
S113157028173907C0F34F5F5F4F423E24E05207FC
S1131580A8F308951EDA8F3F51F190E0FC01B39760
S1131590E232F10530F4EA5BFF4F0C94F54A80E344
S11315A0089580E0089582E3089583E3089584E331
S11315B0089585E3089586E3089587E3089588E30D
S11315C0089589E308958AE2089583E2089581E401
S11315D0089582E4089583E4089584E4089580E0FE
S11315E0089581E308954E990BC02FEF80E792E0B0
S11315F0215080409040E1F700C0000081E0089550
S113160080E008954C9902C081E0089580E0089537
S113161090E00996BED8843008F080E00895CF9316
S1131620DF9382E290E0B5D8D82F8111D1E00E94F7
S1131630AE0183E093E00E94D001C1E0C13091F497
S113164080EC0E9454010E94030280EC0E94540129
S1131650D11103C08AEE92E002C087EF92E00E94AB
S1131660D001C0E08FDF883321F4D13011F4C1E020
S1131670D0E088DF803321F4D11102C0C1E0D1E091
S113168081DF833439F07EDF8434C1F66D2F82E24A
S113169090E0E8D80E94AE01DF91CF9108958F9237
S11316A09F92AF92BF92CF92DF92EF92FF921F93DD
S11316B0CF93DF93182F0E94AE0184E80E94540157
S11316C01330A9F028F4113041F0123059F0D5C18B
S11316D0143091F01530A9F0D0C184E193E00E9458
S11316E0D00113C08EE193E00E94D0010EC08AE7BE
S11316F09DE00E94D00109C08AE293E00E94D001DB
S113170004C087E293E00E94D00180EC0E9454015F
S11317101130A1F1123059F481E090E03AD8C82F89
S1131720D0E082E090E035D8E82EF12C30C01330C0
S113173059F483E090E02DD8C82FD0E084E090E005
S113174028D8E82EF12C23C0143059F487E290E015
S113175020D8C82FD0E089E290E01BD8E82EF12CE5
S113176016C0153081F488E290E013D8C82FD0E079
S11317708AE290E00ED8E82EF12C09C0E12CF12C7D
S1131780C0E0D0E004C0E12CF12CC0E0D0E0CF3FB9
S1131790D10529F08FEFE816F10451F405C0E12CCE
S11317A0F12CC0E0D0E004C0E12CF12CC0E0D0E08A
S11317B083E393E00E94BB0167E081E00E94B101F2
S11317C08C2F0E94EA010E940302DCDE883351F46C
S11317D0C731D10538F4219687EC0E9454018C2F2F
S11317E00E94EA01CFDE803349F4209739F0219733
S11317F087EC0E9454018C2F0E94EA01C3DE8334DB
S113180019F40E94AE0139C1BDDE8434F1F680ECD6
S11318100E9454018BE393E00E94D00169E081E0CF
S11318200E94B1018E2D0E94EA010E940302AADEE9
S1131830883369F48BE3E816F10448F48FEFE81A6F
S1131840F80A89EC0E9454018E2D0E94EA019ADE66
S1131850803361F4E114F10449F081E0E81AF108FD
S113186089EC0E9454018E2D0E94EA018BDE8334A0
S113187019F40E94AE0101C185DE8434C1F6113031
S113188009F0ABC080EC0E94540185E493E00E940F
S1131890D00181E00E94EA010E940302CC24C39497
S11318A0D12C70DE883369F48FE1C816D10448F472
S11318B08FEFC81AD80A86EC0E9454018C2D0E941E
S11318C0EA0160DE803369F482E0C816D10448F08E
S11318D081E0C81AD10886EC0E9454018C2D0E9424
S11318E0EA0150DE833419F40E94AE01C6C04ADE18
S11318F08434B9F680EC0E9454018CE493E00E9495
S1131900D00181E00E94EA010E940302AA24A39468
S1131910B12C38DE883369F48CE0A816B10448F49D
S11319208FEFA81AB80A88EC0E9454018A2D0E94ED
S1131930EA0128DE803369F482E0A816B10448F095
S113194081E0A81AB10888EC0E9454018A2D0E94F3
S1131950EA0118DE833419F40E94AE018EC012DE4F
S11319608434B9F680EC0E94540185E593E00E942A
S1131970D00182E10E94EA010E9403020F2EF2E1EB
S11319808F2E912CF02DFEDD883369F483E68816C2
S1131990910448F48FEF881A980A89EC0E94540144
S11319A0882D0E94EA01EEDD803369F48DE088160B
S11319B0910448F081E0881A910889EC0E9454014E
S11319C0882D0E94EA01DEDD833419F40E94AE0101
S11319D054C0D8DD8434B9F606C0812C912CA12CD6
S11319E0B12CC12CD12C113099F48C2F0E94C0043D
S11319F08E2D0E94BB0480E00E94B6048C2D0E94B0
S1131A00C5048A2D0E94CA04882D0E94CF0433C0C5
S1131A10123059F46C2F81E090E00E9432046E2D54
S1131A2082E090E00E94320426C0133059F46C2FF7
S1131A3083E090E00E9432046E2D84E090E00E94E6
S1131A40320419C0143059F46C2F87E290E00E94DC
S1131A5032046E2D89E290E00E9432040CC01530ED
S1131A6051F46C2F88E290E00E9432046E2D8AE2D9
S1131A7090E00E9432040E94AE01DF91CF911F9149
S1131A80FF90EF90DF90CF90BF90AF909F908F909A
S1131A90089520E011C0662324F495B1906895B9A7
S1131AA003C095B19F7795B995B19F7B95B995B1D1
S1131AB0906495B9660F2F5F283068F3823081F007
S1131AC018F4813031F00895833089F08430B1F016
S1131AD0089588B18B7F88B988B1846088B90895E6
S1131AE088B1877F88B988B1886088B9089588B13A
S1131AF08F7E88B988B1806188B9089588B18F775D
S1131B0088B988B1806888B908956091741181E0BA
S1131B10C0DF6091731182E0BCDF6091721183E0D9
S1131B20B8DF6091711184E0B4CF089580933D11C2
S1131B30811106C0809174118E7F8093741105C049
S1131B4080917411816080937411DFCF0895809324
S1131B503C11811106C0809174118D7F80937411A2
S1131B6005C080917411826080937411CECF089562
S1131B7080933B11811106C0809174118B7F8093F7
S1131B80741105C080917411846080937411BDCF69
S1131B90089580933A11811106C080917411877F52
S1131BA08093741105C080917411886080937411BE
S1131BB0ACCF089580933911811106C080917411BE
S1131BC08F7E8093741105C080917411806180931D
S1131BD074119BCF089580931201811106C08091E6
S1131BE074118F7D8093741105C08091741180628B
S1131BF0809374118ACF089580933811811108C09D
S1131C00809174118F7B809374110E94390507C0F1
S1131C10809174118064809374110E94390575CF8A
S1131C20089580933711811108C0809174118F77C2
S1131C30809374110E94980507C080917411806884
S1131C40809374110E94980560CF08959FEF980FB8
S1131C50983020F5611112C090E0019721E030E046
S1131C60A90102C0440F551F8A95E2F7CA01809565
S1131C709091721189238093721110C090E00197A2
S1131C8021E030E0A90102C0440F551F8A95E2F714
S1131C90CA0190917211892B8093721136CF0895E5
S1131CA080933611811106C0809173118E7F8093C9
S1131CB0731105C08091731181608093731125CFD6
S1131CC0089580933511811106C0809173118D7F21
S1131CD08093731105C08091731182608093731196
S1131CE014CF089580933411811106C0809173112B
S1131CF08B7F8093731105C08091731184608093EE
S1131D00731103CF089580933311811106C080911C
S1131D107311877F8093731105C08091731188605C
S1131D2080937311F2CE0895811106C080917311CE
S1131D308F7E8093731105C08091731180618093AD
S1131D407311E3CE0895811106C0809173118F7DC4
S1131D508093731105C08091731180628093731115
S1131D60D4CE0895811104C08BB18F7D8BB90895B1
S1131D708BB180628BB9089580E0F4DF80E0E3DF0B
S1131D8080E0D2DF80E0BFDF80E0ACDF80E099DF7D
S1131D9081E086DF80E045DF80E02EDF80E01BDF2E
S1131DA080E0F7DE80E0E4DE80E0C0DE80E0CFCEDD
S1131DB00895CF930E94AE018FE593E00E94D00175
S1131DC081E0D0DF81E0BFDF81E0AEDF81E09BDF37
S1131DD081E088DF81E075DF80E062DF81E021DF80
S1131DE081E00ADF81E0F7DE80E0E4DE81E0D1DE3D
S1131DF081E0BEDE81E09ADE81E0A9DEC1E004C0BC
S1131E0061E08C2F23DFCF5FC930D0F380E0AADFFD
S1131E1080E099DF80E088DF80E075DF80E062DFCA
S1131E2080E04FDF81E03CDF80E0FBDE80E0E4DE49
S1131E3080E0D1DE81E0BEDE80E0ABDE80E098DED3
S1131E4080E074DE80E083DEC1E004C060E08C2FBB
S1131E50FDDECF5FC930D0F30E94AE01CF9108956B
S1131E60811106C0809171118F7B8093711105C01F
S1131E708091711180648093711147CE089581110E
S1131E8006C0809171118F7D8093711105C080917E
S1131E90711180628093711138CE0895811106C04A
S1131EA0809171118F7E8093711105C080917111A1
S1131EB080618093711129CE0895811106C08091AB
S1131EC07111877F8093711105C0809171118860B1
S1131ED0809371111ACE0895882331F08091711185
S1131EE08B7F8093711105C0809171118460809300
S1131EF071110BCE0895811106C0809171118D7FEF
S1131F008093711105C08091711182608093711169
S1131F10FCCD0895811106C0809171118E7F80934C
S1131F20711105C080917111816080937111EDCDA3
S1131F300895109244111092FB1180E0DCDF80E0E0
S1131F40E9DF80E08DDF80E09ACF08958F929F9241
S1131F50AF92BF92CF92DF92EF92FF920F931F93B3
S1131F60CF93DF93CDB7DEB7C854D1090FB6F89439
S1131F70DEBF0FBECDBF80917C1190917D11892B66
S1131F8011F40C94B91E10927D1110927C1149E049
S1131F9050E064E873E084E991E10E94214B892BCD
S1131FA0C1F480919D1190E0C0970A9710F00C94B1
S1131FB0B71E4DE050E069E070E084E991E10E94D1
S1131FC0FF0360E273E080E891E10E9446040C9410
S1131FD0B71E49E050E06EE873E084E991E10E94A5
S1131FE0214B892BC1F480919D1190E0C0970A97F1
S1131FF010F00C94B71E4DE050E069E070E084E905
S113200091E10E94FF0364E670E080E891E10E94A0
S113201046040C94B71E4DE050E068E973E084E98F
S113202091E10E94214B892B01F58091A1118153EB
S1132030E82EF12C22E3E20EF11CEE0CFF1CEE0C58
S1132040FF1CEE0CFF1CEE0CFF1C00E010E008C0AF
S113205060E0C8018E0D9F1D0E9432040F5F1F4F68
S113206000311105ACF30C94B71E4DE050E066EA64
S113207073E084E991E10E94214B892BD1F4809192
S1132080A111815330E1839F7001112484E6E80E8D
S1132090F11C00E010E008C060E0C8018E0D9F1D37
S11320A00E9432040F5F1F4F00311105ACF30C94F2
S11320B0B71E48E050E064EB73E084E991E10E94CC
S11320C0214B892B49F460919C11605388E490E082
S11320D00E9432040C94B71E48E050E06DEB73E0AC
S11320E084E991E10E94214B892B49F460919C1170
S11320F060538EE490E00E9432040C94B71E48E0D2
S113210050E066EC73E084E991E10E94214B892B55
S113211049F460919C11605389E490E00E94320478
S11321200C94B71E48E050E06FEC73E084E991E151
S11321300E94214B892B49F460919C1160538FE4D8
S113214090E00E9432040C94B71E48E050E068ED21
S113215073E084E991E10E94214B892B49F4609159
S11321609C1160538AE490E00E9432040C94B71EE0
S113217048E050E061EE73E084E991E10E94214B74
S1132180892B49F460919C11605380E590E00E9492
S113219032040C94B71E44E050E06DEA7CE084E91C
S11321A091E10E94214B892B09F012C242E050E0D8
S11321B060ED7AE088E991E10E94214B892BC1F519
S11321C080919B11863449F460E08AE090E00E949B
S11321D032048AEE93E00E94F00380919B118434D0
S11321E049F461E08AE090E00E94320486EF93E0D3
S11321F00E94F00380919B118E3449F462E08AE0DE
S113220090E00E94320482E094E00E94F003809106
S11322109B11893411F00C94B71E63E08AE090E0BE
S11322200E9432048EE094E00E94F0030C94B71EE6
S113223042E050E06AE174E088E991E10E94214BB8
S1132240892BC1F580919B11863449F460E08BE0C1
S113225090E00E9432048DE194E00E94F0038091AA
S11322609B11843449F461E08BE090E00E943204D5
S113227089E294E00E94F00380919B118E3449F42A
S113228062E08BE090E00E94320485E394E00E94D7
S1132290F00380919B11893411F00C94B71E63E014
S11322A08BE090E00E94320481E494E00E94F00309
S11322B00C94B71E42E050E06DE474E088E991E1CB
S11322C00E94214B892BC1F580919B11863449F4DE
S11322D060E08CE090E00E94320480E594E00E948B
S11322E0F00380919B11843449F461E08CE090E028
S11322F00E9432048CE594E00E94F00380919B11CB
S11323008E3449F462E08CE090E00E94320488E666
S113231094E00E94F00380919B11893411F00C9495
S1132320B71E63E08CE090E00E94320484E794E0FE
S11323300E94F0030C94B71E42E050E060E874E0A1
S113234088E991E10E94214B892BC1F580919B1171
S1132350863449F460E08DE090E00E94320483E822
S113236094E00E94F00380919B11843449F461E06D
S11323708DE090E00E9432048FE894E00E94F00324
S113238080919B118E3449F462E08DE090E00E94CC
S113239032048BE994E00E94F00380919B1189340C
S11323A011F00C94B71E63E08DE090E00E943204BB
S11323B087EA94E00E94F0030C94B71E42E050E0D8
S11323C063EB74E088E991E10E94214B892BC1F50C
S11323D080919B11863449F460E08EE090E00E9485
S11323E0320486EB94E00E94F00380919B118434C4
S11323F049F461E08EE090E00E94320482EC94E0C3
S11324000E94F00380919B118E3449F462E08EE0C7
S113241090E00E9432048EEC94E00E94F0038091DC
S11324209B11893411F00C94B71E63E08EE090E0A8
S11324300E9432048AED94E00E94F0030C94B71ECB
S113244042E050E066EE74E088E991E10E94214B9D
S1132450892BC1F580919B11863449F460E08FE0AB
S113246090E00E94320489EE94E00E94F00380918F
S11324709B11843449F461E08FE090E00E943204BF
S113248085EF94E00E94F00380919B118E3449F40F
S113249062E08FE090E00E94320481E095E00E94C7
S11324A0F00380919B11893411F00C94B71E63E002
S11324B08FE090E00E9432048DE095E00E94F003EA
S11324C00C94B71E42E050E069E175E088E991E1BF
S11324D00E94214B892BC1F580919B11863449F4CC
S11324E060E080E190E00E9432048CE195E00E947B
S11324F0F00380919B11843449F461E080E190E021
S11325000E94320488E295E00E94F00380919B11BE
S11325108E3449F462E080E190E00E94320484E366
S113252095E00E94F00380919B11893411F00C9482
S1132530B71E63E080E190E00E94320480E495E0FD
S11325400E94F0030C94B71E42E050E06CE475E086
S113255088E991E10E94214B892B11F00C94B71E5C
S113256080919B11863449F460E081E190E00E94FF
S113257032048FE495E00E94F00380919B1184342F
S113258049F461E081E190E00E9432048BE595E03A
S11325900E94F00380919B118E3449F462E081E142
S11325A090E00E94320487E695E00E94F003809157
S11325B09B11893411F00C94B71E63E081E190E023
S11325C00E94320483E795E00E94F0030C94B71E46
S11325D045E050E06FE775E084E991E10E94214B0A
S11325E0892B31F504E911E1F801858190E0C09768
S11325F09681880F682F660F660F860F682F690F04
S1132600605381E090E00E943204F801808590E0FC
S1132610C0979185880F682F660F660F860F682F05
S1132620690F605382E090E00E9432040C94B71E5C
S113263045E050E065E875E084E991E10E94214BB2
S1132640892B31F504E911E1F801858190E0C09707
S11326509681880F682F660F660F860F682F690FA3
S1132660605383E090E00E943204F801808590E09A
S1132670C0979185880F682F660F660F860F682FA5
S1132680690F605384E090E00E9432040C94B71EFA
S113269045E050E06BE875E084E991E10E94214B4C
S11326A0892B21F546E050E060E278E089E991E188
S11326B00E94214B892B39F461E089E090E00E946B
S11326C032040C94B71E46E050E061E975E089E9F4
S11326D091E10E94214B892B11F00C94B71E60E00C
S11326E089E090E00E9432040C94B71E45E050E06B
S11326F068E975E084E991E10E94214B892B21F579
S113270046E050E060E278E089E991E10E94214BE3
S1132710892B39F461E086E290E00E9432040C9443
S1132720B71E46E050E061E975E089E991E10E9455
S1132730214B892B11F00C94B71E60E086E290E0E7
S11327400E9432040C94B71E45E050E06EE975E037
S113275084E991E10E94214B892B31F504E911E1CF
S1132760F801858190E0C0979681880F682F660FE5
S1132770660F860F682F690F605387E290E00E940E
S11327803204F801808590E0C0979185880F682F06
S1132790660F660F860F682F690F605389E290E019
S11327A00E9432040C94B71E45E050E064EA75E0E0
S11327B084E991E10E94214B892B31F504E911E16F
S11327C0F801858190E0C0979681880F682F660F85
S11327D0660F860F682F690F605388E290E00E94AD
S11327E03204F801808590E0C0979185880F682FA6
S11327F0660F660F860F682F690F60538AE290E0B8
S11328000E9432040C94B71E45E050E06AEA75E079
S113281084E991E10E94214B892B21F546E050E0A7
S113282065E773E089E991E10E94214B892B39F432
S113283061E082E290E00E9432040C94B71E47E00B
S113284050E06CE773E089E991E10E94214B892B08
S113285011F00C94B71E60E082E290E00E94320412
S11328600C94B71E45E050E060EB75E084E991E11B
S11328700E94214B892BA1F4E4E9F1E1808590E0E9
S1132880C0979185880F682F660F660F860F682F93
S1132890690F605380E390E00E9432040C94B71EE9
S11328A045E050E066EB75E084E991E10E94214B3C
S11328B0892B21F543E050E063EA76E089E991E170
S11328C00E94214B892B39F461E08EE992E00E9449
S11328D032040C94B71E46E050E060EA76E089E9E1
S11328E091E10E94214B892B11F00C94B71E60E0FA
S11328F08EE992E00E9432040C94B71E46E050E048
S11329006CEB75E084E991E10E94214B892B51F035
S113291030C060E0C80188589D4F0E9432040F5FA8
S11329201F4F02C000E010E00032110594F30F2E97
S1132930FAE9EF2EF1E1FF2EF02D00E010E00AC0DD
S1132940C80188589D4F0E943204FFEFEF1AFF0A16
S11329500F5F1F4FF7016081662319F00F311105D6
S11329607CF360E0C80188589D4F0E9432040C94A7
S1132970B71E46E050E063EC75E084E991E10E9403
S1132980214B892B51F030C060E0C801885A9D4F1B
S11329900E9432040F5F1F4F02C000E010E00032BB
S11329A0110594F30F2EFAE9EF2EF1E1FF2EF02D2D
S11329B000E010E00AC0C801885A9D4F0E9432040A
S11329C0FFEFEF1AFF0A0F5F1F4FF70160816623C5
S11329D019F00F3111057CF360E0C801885A9D4F4E
S11329E00E9432040C94B71E80919411843209F031
S11329F0B1C645E050E06AEC75E084E991E10E94DB
S1132A00214B892B71F038C3FC01EC56FE4E8081BA
S1132A10E9E3F0E0EC0FFD1FE40FF51F80832F5F67
S1132A2001C020E02F30B0F4422F50E0CA010596D7
S1132A30FC01EC56FE4E3081332361F0FC01EC5670
S1132A40FE4E30813D3031F0FC01EC56FE4E3081BB
S1132A503A30D1F6E9E3F0E0EC0FFD1FE20FF11D8F
S1132A601082D12C00E049C0E02EF12CF2E3EF0EED
S1132A70F11CEE0CFF1CEE0CFF1CEE0CFF1CEE0C0C
S1132A80FF1C10E012C0C701810F911D0E94C903F1
S1132A909FEF980F9E3F08F080E0E9E2F0E0EC0F32
S1132AA0FD1FE10FF11D80831F5F103160F318AE2D
S1132AB08EE015C0282F30E0E9E2F0E0EC0FFD1FB6
S1132AC0E20FF31F9081903211F091110AC0E9E2F4
S1132AD0F0E0EC0FFD1FE20FF31F10828150811113
S1132AE0E9CFBE01675D7F4FCE01C9960E94184BA6
S1132AF0892B11F4DD24D3940F5F0A3018F4DD2000
S1132B0009F4B2CFD11016C080ED95E00E945802AE
S1132B108DE00E943B028AE00E943B0280ED95E03A
S1132B200E94F0038DE00E94E3038AE00E94E30325
S1132B300C94B71E8EE4898381E48A838DE48B83AD
S1132B4085E48C838AE38D83F12C16C00F2D10E06D
S1132B50C80188589D4F0E94C9039FEF980F9E3F5C
S1132B6008F080E2F801359621E030E02C0F3D1F9B
S1132B70E20FF31F8083F3943FE13F1538F71EA261
S1132B80CE0101960E9458028DE00E943B028AE029
S1132B900E943B02CE0101960E94F0038DE00E9448
S1132BA0E3038AE00E94E30381E4898384E48A8363
S1132BB08B8382E58C838AE38D83F12C16C00F2DE1
S1132BC010E0C801885A9D4F0E94C9039FEF980FD7
S1132BD09E3F08F080E2F801359621E030E02C0FAA
S1132BE03D1FE20FF31F8083F3943FE13F1538F755
S1132BF01EA28E010F5F1F4FC8010E9458028DE074
S1132C000E943B028AE00E943B02C8010E94F0033A
S1132C108DE00E94E3038AE00E94E30382E090E0F7
S1132C200E94C903F82E81E090E00E94C9031F921C
S1132C30FF921F928F938FED95E09F938F931F9335
S1132C400F930E94494BC8010E9458028DE00E94D4
S1132C503B028AE00E943B02C8010E94F0038DE01F
S1132C600E94E3038AE00E94E30384E090E00E9470
S1132C70C903F82E83E090E00E94C9031F92FF92DB
S1132C801F928F938EEE95E09F938F931F930F93D4
S1132C900E94494BC8010E9458028DE00E943B02E9
S1132CA08AE00E943B02C8010E94F0038DE00E946A
S1132CB0E3038AE00E94E30389E090E00E94C903F1
S1132CC00FB6F894DEBF0FBECDBF813019F480E299
S1132CD098E002C080E793E09F938F938DEF95E097
S1132CE09F938F938E010F5F1F4F1F930F930E942B
S1132CF0494BC8010E9458028DE00E943B028AE0C1
S1132D000E943B02C8010E94F0038DE00E94E3038D
S1132D108AE00E94E3038EE992E00E94C9030F90C7
S1132D200F900F900F900F900F90813019F483EA59
S1132D3096E002C080EA96E09F938F9385E096E048
S1132D409F938F938E010F5F1F4F1F930F930E94CA
S1132D50494BC8010E9458028DE00E943B028AE060
S1132D600E943B02C8010E94F0038DE00E94E3032D
S1132D708AE00E94E30386E290E00E94C9030F9078
S1132D800F900F900F900F900F90813019F480E204
S1132D9098E002C080E793E09F938F938DE096E0E4
S1132DA09F938F938E010F5F1F4F1F930F930E946A
S1132DB0494BC8010E9458028DE00E943B028AE000
S1132DC00E943B02C8010E94F0038DE00E94E303CD
S1132DD08AE00E94E30389E290E00E94C903F82E8E
S1132DE087E290E00E94C9031F92FF921F928F9383
S1132DF085E196E09F938F931F930F930E94494B15
S1132E00C8010E9458028DE00E943B028AE00E94A1
S1132E103B02C8010E94F0038DE00E94E3038AE0B4
S1132E200E94E3038AE290E00E94C903F82E88E23C
S1132E3090E00E94C9031F92FF921F928F9384E235
S1132E4096E09F938F931F930F930E94494BC80161
S1132E500E9458028DE00E943B028AE00E943B02DD
S1132E60C8010E94F0038DE00E94E3038AE00E94FF
S1132E70E30380E390E00E94C9031F928F9383E3EE
S1132E8096E09F938F931F930F930E94494BC80121
S1132E900E9458028DE00E943B028AE00E943B029D
S1132EA0C8010E94F0038DE00E94E3038AE00E94BF
S1132EB0E30382E290E00E94C9030FB6F894DEBFF8
S1132EC00FBECDBF813019F485E793E002C08CE7D3
S1132ED093E09F938F938DE396E09F938F938E015E
S1132EE00F5F1F4F1F930F930E94494BC8010E940D
S1132EF058028DE00E943B028AE00E943B02C80116
S1132F000E94F0038DE00E94E3038AE00E94E30341
S1132F100F900F900F900F900F900F9010E04CC0F7
S1132F20812F90E00A960E94C9039AE5998391E360
S1132F30910F9A839AE39B8381110AC086E48C8360
S1132F4089E48D8382E58E8385E48F8318861FC090
S1132F50813041F484E48C8381E48D8389E58E831C
S1132F601F8215C0823061F48EE48C8389E48D83E2
S1132F7087E48E8388E48F8384E58887198607C075
S1132F8089E48C8383E58D838FE48E831F82CE0155
S1132F9001960E9458028DE00E943B028AE00E9442
S1132FA03B02CE0101960E94F0038DE00E94E303F0
S1132FB08AE00E94E3031F5F183008F4B1CF81E276
S1132FC090E00E94C9031F928F9385E496E09F933B
S1132FD08F938E010F5F1F4F1F930F930E94494BD6
S1132FE0C8010E9458028DE00E943B028AE00E94C0
S1132FF03B02C8010E94F0038DE00E94E3038AE0D3
S11330000E94E30385E290E00E94C9031F928F931C
S11330108FE496E09F938F931F930F930E94494BE5
S1133020C8010E9458028DE00E943B028AE00E947F
S11330303B02C8010E94F0038DE00E94E3038AE092
S11330400E94E30389E596E00E9458028DE00E9405
S11330503B028AE00E943B0289E596E00E94F0036D
S11330608DE00E94E3038AE00E94E3030FB6F89424
S1133070DEBF0FBECDBF7BC645E050E06EE576E017
S113308084E991E10E94214B892B71F0C0C0FC01BD
S1133090EC56FE4E8081E9E2F0E0EC0FFD1FE40FF8
S11330A0F51F80832F5F01C020E02F30B0F4422F42
S11330B050E0CA010596FC01EC56FE4E30813323E4
S11330C061F0FC01EC56FE4E30813D3031F0FC01E4
S11330D0EC56FE4E30813A30D1F6E9E2F0E0EC0FE6
S11330E0FD1FE20FF11D1082D12C00E049C0E02E3B
S11330F0F12C92E3E90EF11CEE0CFF1CEE0CFF1C0C
S1133100EE0CFF1CEE0CFF1C10E012C0C701810F77
S1133110911D0E94C9039FEF980F9E3F08F080E025
S1133120E1E0F0E0EC0FFD1FE10FF11D80831F5F74
S1133130103160F3188A8EE015C0282F30E0E1E0EA
S1133140F0E0EC0FFD1FE20FF31F9081903211F0BD
S113315091110AC0E1E0F0E0EC0FFD1FE20FF31F54
S1133160108281508111E9CFBE016F5F7F4FCE0184
S113317089960E94184B892B11F4DD24D3940F5F98
S11331800A3018F4DD2009F4B2CFD11015C080ED57
S113319095E00E9458028DE00E943B028AE00E9462
S11331A03B0280ED95E00E94F0038DE00E94E30372
S11331B08AE00E94E303DBC50E94990F84E696E04F
S11331C00E9458028DE00E943B028AE00E943B026A
S11331D08BE696E00E9458028DE00E943B028AE052
S11331E00E943B0284E696E00E94F0038DE00E9478
S11331F0E3038AE00E94E3038BE696E00E94F00377
S11332008DE00E94E3038AE00E94E303B0C545E039
S113321050E063E776E084E991E10E94214B892B39
S113322071F097C0FC01EC56FE4E8081E9E2F0E0BB
S1133230EC0FFD1FE40FF51F80832F5F01C020E01A
S11332402F30B0F4422F50E0CA010596FC01EC5631
S1133250FE4E3081332361F0FC01EC56FE4E30818A
S11332603D3031F0FC01EC56FE4E30813A30D1F65F
S1133270E9E2F0E0EC0FFD1FE20FF11D1082D12C0A
S113328000E049C0E02EF12CE2E3EE0EF11CEE0C5E
S1133290FF1CEE0CFF1CEE0CFF1CEE0CFF1C10E0E0
S11332A012C0C701810F911D0E94C9039FEF980F9F
S11332B09E3F08F080E0E1E0F0E0EC0FFD1FE10F3D
S11332C0F11D80831F5F103160F3188A8EE015C0F2
S11332D0282F30E0E1E0F0E0EC0FFD1FE20FF31FD8
S11332E09081903211F091110AC0E1E0F0E0EC0F0E
S11332F0FD1FE20FF31F108281508111E9CFBE013F
S11333006F5F7F4FCE0189960E94184B892B11F471
S1133310DD24D3940F5F0A3018F4DD2009F4B2CF12
S1133320DD2009F424C589E796E00E9458028DE067
S11333300E943B028AE00E943B0289E796E00E94D9
S1133340F0038DE00E94E3038AE00E94E3030E94FD
S1133350D70946E050E060E876E084E991E10E9414
S1133360214B892B71F0A0C0FC01EC56FE4E8081EC
S1133370E9E2F0E0EC0FFD1FE40FF51F80832F5FFF
S113338001C020E02F30B0F4422F50E0CA0106966D
S1133390FC01EC56FE4E3081332361F0FC01EC5607
S11333A0FE4E30813D3031F0FC01EC56FE4E308152
S11333B03A30D1F6E9E2F0E0EC0FFD1FE20FF11D27
S11333C01082D12C00E049C0E02EF12CF2E3EF0E84
S11333D0F11CEE0CFF1CEE0CFF1CEE0CFF1CEE0CA3
S11333E0FF1C10E012C0C701810F911D0E94C90388
S11333F09FEF980F9E3F08F080E0E1E0F0E0EC0FD3
S1133400FD1FE10FF11D80831F5F103160F3188AE7
S11334108EE015C0282F30E0E1E0F0E0EC0FFD1F56
S1133420E20FF31F9081903211F091110AC0E1E094
S1133430F0E0EC0FFD1FE20FF31F108281508111A9
S1133440E9CFBE016F5F7F4FCE0189960E94184B72
S1133450892B11F4DD24D3940F5F0A3018F4DD2096
S113346009F4B2CFDD2009F482C481E080934411D1
S11334701092FB110E947B0F81E00E948A0F87E863
S113348096E00E9458028DE00E943B028AE00E946E
S11334903B0287E896E00E94F0038DE00E94E3037C
S11334A08AE00E94E30363C44DE050E06FE876E0F5
S11334B084E991E10E94214B892B71F0A0C0FC01A9
S11334C0EC56FE4E8081E9E2F0E0EC0FFD1FE40FC4
S11334D0F51F80832F5F01C020E02F30B0F4422F0E
S11334E050E0CA010D96FC01EC56FE4E30813323A8
S11334F061F0FC01EC56FE4E30813D3031F0FC01B0
S1133500EC56FE4E30813A30D1F6E9E2F0E0EC0FB1
S1133510FD1FE20FF11D1082D12C00E049C0E02E06
S1133520F12C22E3E20EF11CEE0CFF1CEE0CFF1C4E
S1133530EE0CFF1CEE0CFF1C10E012C0C701810F43
S1133540911D0E94C9039FEF980F9E3F08F080E0F1
S1133550E1E0F0E0EC0FFD1FE10FF11D80831F5F40
S1133560103160F3188A8EE015C0282F30E0E1E0B6
S1133570F0E0EC0FFD1FE20FF31F9081903211F089
S113358091110AC0E1E0F0E0EC0FFD1FE20FF31F20
S1133590108281508111E9CFBE016F5F7F4FCE0150
S11335A089960E94184B892B11F4DD24D3940F5F64
S11335B00A3018F4DD2009F4B2CFDD2009F4D7C3B2
S11335C060E08EE992E00E9432041092341181E0AE
S11335D0809333118DE996E00E9458028DE00E9499
S11335E03B028AE00E943B028DE996E00E94F003D0
S11335F08DE00E94E3038AE00E94E303B8C34AE03B
S113360050E067EA76E084E991E10E94214B892B3E
S113361071F0ADC3FC01EC56FE4E8081E9E2F0E0AE
S1133620EC0FFD1FE40FF51F80832F5F01C020E026
S11336302F30B0F4422F50E0CA010A96FC01EC5638
S1133640FE4E3081332361F0FC01EC56FE4E308196
S11336503D3031F0FC01EC56FE4E30813A30D1F66B
S1133660E9E2F0E0EC0FFD1FE20FF11D1082D12C16
S113367000E049C0E02EF12C32E3E30EF11CEE0C25
S1133680FF1CEE0CFF1CEE0CFF1CEE0CFF1C10E0EC
S113369012C0C701810F911D0E94C9039FEF980FAB
S11336A09E3F08F080E0E1E0F0E0EC0FFD1FE10F49
S11336B0F11D80831F5F103160F3188A8EE015C0FE
S11336C0282F30E0E1E0F0E0EC0FFD1FE20FF31FE4
S11336D09081903211F091110AC0E1E0F0E0EC0F1A
S11336E0FD1FE20FF31F108281508111E9CFBE014B
S11336F06F5F7F4FCE0189960E94184B892B11F47E
S1133700DD24D3940F5F0A3018F4DD2009F4B2CF1E
S1133710DD2009F42CC361E08EE992E00E943204BA
S113372081E0809334111092331182EB96E00E9471
S113373058028DE00E943B028AE00E943B0282EB29
S113374096E00E94F0038DE00E94E3038AE00E9469
S1133750E3030DC369EB76E084E991E10E942F4B0A
S1133760892B29F56CE573E084E991E10E942F4BE4
S1133770892B01F59FC0DF010D900020E9F7119717
S1133780AE1BBF0B509788F0823379F4818180336C
S113379061F484818D3249F487818D3231F48285DC
S11337A0843519F485858A3359F0319605C0E4E9E6
S11337B0F1E102C0E4E9F1E180818111DCCF01C0D3
S11337C081E0882309F4D3C2828190E0C097880FF6
S11337D0082F000F000F800F9381082F090F00534B
S11337E0858190E0C097880F282F220F220F820F27
S11337F02681280F0F2EF0EDFF2EF02DF20E80857E
S113380090E0C097880F182F110F110F810F918529
S1133810182F190F1053838590E0C097880F982FA5
S1133820990F990F890F9485890F0F2EF0EDDF2ED4
S1133830F02DD80E868590E0C097880F982F990FA9
S1133840990F890F9785890F0F2EF0EDEF2EF02D2C
S1133850E80E21532C3008F08AC2112309F487C2E0
S1133860103208F084C287E18D1508F480C29BE30E
S11338709E1508F47CC2802F0E94CF048F2D0E94D5
S1133880CA04812F0E94C5048D2D0E94C0048E2D70
S11338900E94BB0480E00E94B6040093F911F092E8
S11338A0FA111093F811D0929712E092FC11109231
S11338B00B175DC243E050E063EC76E084E991E1EC
S11338C00E94214B892B09F4CAC0D3C08701045834
S11338D01F4F000F111F000F111F000F111FC801F0
S11338E00E94C903882EEFEF8E1709F4B4C0C801F3
S11338F001960E94C903B82EC80102960E94C9030A
S1133900D82EC80103960E94C903982EC8010596B3
S11339100E94C903A82EC80106960E94C903C82E96
S1133920C80107960E94C903382FFCE0FD1518F45E
S113393024EF2D0D05C0D11002C02CE001C02D2DA7
S11339408CE48983C70164E670E00E94BF4A80E387
S1133950860F8A83EAE0F0E0C701BF010E94BF4AF4
S1133960482FCB01BF010E94BF4A805D8B83405D1D
S11339704C834FE54D838AE58E83882D6AE00E944F
S1133980B34A805D8F8380E3890F88874987B110AC
S113399009C086E48A8789E48B8782E58C8785E47D
S11339A08D8708C089E48A878EE48B8784E58C87B9
S11339B082E58D874FE54E875AE0822F652F0E945E
S11339C0B34A805D8F8780E3890F888B8DE2898B72
S11339D0892D0E94B34A805D8A8B80E3890F8B8B8B
S11339E04C8B2BE02D1528F480E58D8B8DE48E8B8C
S11339F004C081E48D8B8DE48E8B8FE58F8B2AE060
S1133A008A2D622F0E94B34A805D888F80E3890FDC
S1133A10898F4FE24A8F8C2D0E94B34A805D8B8F31
S1133A2080E3890F8C8F4D8F832F0E94B34A805D72
S1133A308E8F80E3890F8F8F18A2CE0101960E948A
S1133A405802CE0101960E94F0038DE00E94E30328
S1133A508AE00E94E3033FEFE31AF30A03C0EE2473
S1133A60E394F12C89EEE81683E0F80608F42ECFEF
S1133A707EC143E050E067EC76E084E991E10E9486
S1133A80214B892B09F466C06CC07801EE0CFF1C35
S1133A90E00EF11EC7018B5D9C4D0E94C903C82E28
S1133AA09FEF891709F453C0C7018A5D9C4D0E949A
S1133AB0C903D82EC701895D9C4D0E94C903482FB4
S1133AC088E48983C80164E670E00E94BF4A80E309
S1133AD0860F8A83EAE0F0E0C801BF010E94BF4A72
S1133AE0282FCB01BF010E94BF4A805D8B83205DDC
S1133AF02C838FE58D832AE08C2D622F0E94B34A9C
S1133B00805D8E8380E3890F8F833FE238878D2D1C
S1133B100E94B34A805D898780E3890F8A873B8747
S1133B20842F0E94B34A805D8C8780E3890F8D8740
S1133B301E86CE0101960E945802CE0101960E9473
S1133B40F0038DE00E94E3038AE00E94E3030F5F29
S1133B501F4F02C001E010E00F31110508F495CFAA
S1133B6006C149E050E06BEC76E084E991E10E9403
S1133B70214B892B09F467C06DC06801E2E3CE0EC6
S1133B80D11CCC0CDD1CCC0CDD1CCC0CDD1CCC0CF9
S1133B90DD1C84E2898380E58A8380E3800F8B8344
S1133BA08AE38C83F12C0CC0C6018F0D911D0E94F9
S1133BB0C9039FEF980F9E3F10F4803231F4F394C1
S1133BC0FFE0FF1588F781E001C080E08823C1F0A1
S1133BD01D8232C0C6018F0D911D0E94C9039FEF43
S1133BE0980F9E3F08F080E2EF2DF0E0349621E03C
S1133BF030E02C0F3D1FE20FF31F8083F39401C0CC
S1133C00F12C3FE03F1530F71D8A83E113C0282FC4
S1133C1030E0E1E0F0E0EC0FFD1FE20FF31F9081D4
S1133C20903251F4E1E0F0E0EC0FFD1FE20FF31FDE
S1133C3010828150843058F7CE0101960E94F0031F
S1133C400F5F1F4F02C000E010E00A30110508F4B6
S1133C5094CF8DC049E050E065ED76E084E991E1D0
S1133C600E94214B892B09F467C06DC06801CC0CFC
S1133C70DD1CCC0CDD1CCC0CDD1CCC0CDD1C84E66A
S1133C80C80ED11C84E2898380E58A8380E3800F97
S1133C908B838AE38C83F12C0CC0C6018F0D911D9C
S1133CA00E94C9039FEF980F9E3F10F4803231F4B5
S1133CB0F3949FE09F1588F781E001C080E088239A
S1133CC0C1F01D8232C0C6018F0D911D0E94C9032F
S1133CD09FEF980F9E3F08F080E2EF2DF0E03496BE
S1133CE021E030E02C0F3D1FE20FF31F8083F3949B
S1133CF001C0F12C3FE03F1530F71D8A83E113C06A
S1133D00282F30E0E1E0F0E0EC0FFD1FE20FF31F9D
S1133D109081903251F4E1E0F0E0EC0FFD1FE20FEE
S1133D20F31F10828150843058F7CE0101960E940F
S1133D30F0030F5F1F4F02C000E010E00A301105CE
S1133D4008F494CF14C0809194118A3581F4809141
S1133D509511813360F080919511893340F4E4E941
S1133D60F1E16281818141E081530E94300A109225
S1133D709411C85BDF4F0FB6F894DEBF0FBECDBF02
S1133D80DF91CF911F910F91FF90EF90DF90CF9033
S1133D90BF90AF909F908F9008956091741181E0CF
S1133DA00E94490D6091731182E00E94490D609157
S1133DB0721183E00E94490D6091711184E00E94A8
S1133DC0490D10927A000E94BC0E81E00E945401B9
S1133DD00CC080E00E94DA0D81E00E947B0F81E03C
S1133DE00E94DA0D80E00E947B0F0399F2CF0E94BB
S1133DF0D709806480937C00EAE7F0E080818064E6
S1133E00808380917A0084FFFCCFEAE7F0E0808130
S1133E10806180838091780090917900089587E093
S1133E20E8CF0895CF92DF92EF92FF920F931F9302
S1133E30CF93DF93CDB7DEB7A0970FB6F894DEBF6C
S1133E400FBECDBF80919C10882339F09091F8115A
S1133E5080919B10981709F45AC0E1DF9C01A0EDF2
S1133E60B7E00E94FE4A6B017C01052E5AE096954C
S1133E708795779567955A95D1F7502D24E630E0CC
S1133E8040E050E00E94D34A162F072FC701B60125
S1133E9020E030E941E050E00E94D34A0F931F93A1
S1133EA03F932F938FED96E09F938F93CE010196CE
S1133EB09F938F930E94494B85B1886085B90FB653
S1133EC0F894DEBF0FBECDBFF12C0CC00E943B02A4
S1133ED0E1E0F0E0EC0FFD1FE00FF11F80810E9494
S1133EE0E303F3940F2D10E0E1E0F0E0EC0FFD1F8D
S1133EF0E00FF11F80818111E9CF85B1877F85B9FA
S1133F008091F81180939B1081E080939C10A0967F
S1133F100FB6F894DEBF0FBECDBFDF91CF911F91D6
S1133F200F91FF90EF90DF90CF9008950F931F9320
S1133F30CF9300E010E0C0E005C085E05ADF080F31
S1133F40191FCF5FC233C8F3980136952795ABE7A5
S1133F50B4E10E94FE4A96958795CF911F910F91E7
S1133F600895482F50E0FA013197E830F10508F040
S1133F7054C0E859FF4F0C94F54A85B1806185B966
S1133F8085B18F7D85B985B18F7B85B951C085B1E8
S1133F908F7E85B985B18F7D85B985B18F7B85B9D4
S1133FA047C085B1806185B985B1806285B985B125
S1133FB08F7B85B93DC085B18F7E85B985B180621F
S1133FC085B985B18F7B85B933C085B1806185B9E9
S1133FD085B1806285B985B1806485B929C085B110
S1133FE08F7E85B985B1806285B985B1806485B9D4
S1133FF01FC085B1806185B985B18F7D85B985B1D3
S1134000806485B915C085B18F7E85B985B18F7DF2
S113401085B985B1806485B90BC0E82FF0E0E05C18
S1134020FE4E808121E0811101C020E030E025C0F6
S11340307DDF873A21E09207A8F4853521E09207D5
S1134040A0F487399105A0F08FE798E321E081502F
S113405090402040E1F700C0000068DF87399105F7
S113406050F4089522E030E008C020E030E005C0BC
S113407023E030E002C021E030E0822F932F089546
S1134080482F50E0FA013197E830F10508F054C0A8
S1134090E059FF4F0C94F54A85B1806185B985B12B
S11340A08F7D85B985B18F7B85B951C085B18F7EF0
S11340B085B985B18F7D85B985B18F7B85B947C0B9
S11340C085B1806185B985B1806285B985B18F7B01
S11340D085B93DC085B18F7E85B985B1806285B9CA
S11340E085B18F7B85B933C085B1806185B985B1D0
S11340F0806285B985B1806485B929C085B1806144
S113410085B985B18F7D85B985B1806485B91FC0B6
S113411085B18F7E85B985B1806285B985B18064AA
S113412085B915C085B18F7E85B985B18F7D85B977
S113413085B1806485B90BC0E82FF0E0E05CFE4EE9
S1134140808121E0811101C020E030E021C0EEDE59
S113415084369105A8F0853823E09207A0F4833CC7
S1134160914068F08FE798E321E08150904020402F
S1134170E1F700C00000DADE833C914038F4089592
S113418020E030E005C022E030E002C021E030E071
S1134190822F932F089580E090E00E94C903882322
S11341A079F060E080E090E00E94320480E090E0EA
S11341B00E94C903811106C00E94FE0881E008958F
S11341C081E0089580E0089560E187E00E9484031F
S11341D080E00E947303882314F480E0089581E052
S11341E008950F931F93CF93DF93D0919712DD30EF
S11341F010F0DC5003C0D11101C0DCE00DEF11E17F
S1134200CDECDC9F812D112486958695869590E3CF
S1134210980FF8019083880F982F990F990F890FA1
S1134220FD2FF81B8F2F805DF801818360E081E012
S11342300E94B1018D2F0E94EA0162E081E00E9498
S1134240B1018AE30E9468018AE3F801828363E092
S113425081E00E94B1018091FC110E94EA018091E9
S1134260FC118C9FC12D1124C695C695C69590E36B
S11342709C0FF8019383CC0F9C2F990F990FC90FB2
S11342808C1B805D848365E081E00E94B101809194
S113429097128C3018F085EF96E002C088EF96E014
S11342A00E94D001809197128C3010F080E501C0FB
S11342B081E4CDEFD1E18D838DE48E8367E081E0ED
S11342C00E94B10180E20E94680110E21F8368E04D
S11342D081E00E94B1018091F8110E94EA0190915D
S11342E0F8118DEC989F812D1124869586958695DD
S11342F020E3280F2887880F282F220F220F820FF0
S1134300981B905D99871A878091FA1181508C309F
S113431050F56BE081E00E94B101E091FA11F0E008
S11343203197EE0FFF1FEB58FE4F808191810E9461
S1134330D00180E090E013C0E091FA11F0E03197F1
S1134340EE0FFF1FEB58FE4F0190F081E02DE80FB8
S1134350F91F2081FC01E85FFD4E20830196833024
S1134360910554F304C081EB9AE00E94D001DF91DF
S1134370CF911F910F910895811106C088E1809318
S1134380C10010927B11089588E98093C1001092B6
S11343907A111092791180E090E005C0FC01E85692
S11343A0FD4E10820196811522E09207B8F308951C
S11343B0EF92FF921F93CF93DF93CDB7DEB7AD9704
S11343C00FB6F894DEBF0FBECDBF86E0EBEFF6E08C
S11343D0DE01119601900D928A95E1F710E01DC05F
S11343E0812F90E07C0125E0E20EF11C88589D4F5E
S11343F00E94C903E1E0F0E0EC0FFD1FEE0DFF1D8C
S1134400808381508E3F40F0E1E0F0E0EC0FFD1F2F
S1134410EE0DFF1D80E280831F5F103108F31E8ABA
S1134420CE0101960E94AC02CE0101960E94F003D7
S11344308DE00E94E3038AE00E94E303AD960FB689
S1134440F894DEBF0FBECDBFDF91CF911F91FF90D7
S1134450EF900895EF92FF921F93CF93DF93CDB720
S1134460DEB7AD970FB6F894DEBF0FBECDBF86E0C2
S1134470E1E0F7E0DE01119601900D928A95E1F7F3
S113448010E01DC0812F90E07C0125E0E20EF11CBC
S1134490885A9D4F0E94C903E1E0F0E0EC0FFD1F34
S11344A0EE0DFF1D808381508E3F40F0E1E0F0E08F
S11344B0EC0FFD1FEE0DFF1D80E280831F5F1031A6
S11344C008F31E8ACE0101960E94AC02CE01019629
S11344D00E94F0038DE00E94E3038AE00E94E3035C
S11344E0AD960FB6F894DEBF0FBECDBFDF91CF916E
S11344F01F91FF90EF900895EF92FF920F931F93F7
S1134500CF93DF93CDB7DEB7AD970FB6F894DEBF88
S11345100FBECDBFE12C43C084E2898380E58A834A
S113452080E38E0D8B838AE38C83F12C25C02F2DA1
S113453030E089010C5F1F4F8E2D90E0C29682956A
S11345409295907F9827807F9827820F931F0E94CF
S1134550C903E1E0F0E0EC0FFD1FE00FF11F8083E1
S113456081508E3F40F0E1E0F0E0EC0FFD1FE00FE2
S1134570F11F80E28083F3948FE08F15C0F61D8ACB
S1134580CE0101960E94AC02CE0101960E94F00376
S11345908DE00E94E3038AE00E94E303E39489E050
S11345A08E1508F0B9CFAD960FB6F894DEBF0FBEE6
S11345B0CDBFDF91CF911F910F91FF90EF900895A0
S11345C0EF92FF921F93CF93DF93CDB7DEB7AD97F2
S11345D00FB6F894DEBF0FBECDBF86E0E7E0F7E08C
S11345E0DE01119601900D928A95E1F710E01DC04D
S11345F0812F90E07C0125E0E20EF11C80549C4F59
S11346000E94C903E1E0F0E0EC0FFD1FEE0DFF1D79
S1134610808381508E3F40F0E1E0F0E0EC0FFD1F1D
S1134620EE0DFF1D80E280831F5F103208F31EA28F
S1134630CE0101960E94AC02CE0101960E94F003C5
S11346408DE00E94E3038AE00E94E303AD960FB677
S1134650F894DEBF0FBECDBFDF91CF911F91FF90C5
S1134660EF900895A5DEF6DE47DFAACF0895EF9216
S1134670FF920F931F93CF93DF93809111018130A9
S1134680D1F412C0C12FD0E0CE0188589D4F0E94B2
S1134690C903FE01E75BFD4E808381508E3F10F01D
S11346A080E280831F5F01C010E0103158F3109244
S11346B059121092110180E108C0E82FF0E0E85B84
S11346C0FD4E9081903219F481508111F6CFD0E0E3
S11346D001C0DF5FD81738F4ED2FF0E0E75BFD4E43
S11346E090819032B1F3D817D8F5C82FCD1B2EE0A6
S11346F030E02C1B3109890112F40F5F1F4F15950F
S11347000795E02E60E080E00E94B10182E00E9403
S1134710680161E080E00E94B10183E00E946801C9
S1134720F12C04C080E20E946801F394FE14D0F3DB
S1134730F12C0AC0EF2DF0E0ED0FF11DE75BFD4E0B
S113474080810E946801F394FC16A0F3C00FCE5F31
S113475004C080E20E946801CF5FCF30D0F30EC066
S113476060E080E00E94B10182E00E94680161E0A3
S113477080E00E94B10183E00E946801DF91CF9143
S11347801F910F91FF90EF900895BF92CF92DF9207
S1134790EF92FF920F931F93CF93DF93B82E0E9453
S11347A0AE01B11003C08DE097E002C08BE197E049
S11347B00E94D00180EC0E9454018AE297E00E949A
S11347C0D0010E94C20A843409F0D5C080EC0E9452
S11347D0540187E397E00E94D001BB2099F1C1E026
S11347E0D0E072C06FEFCE0101970E94320480ECDA
S11347F00E9454019E01ADECBCEC0E94FE4A9295CD
S113480082958F7089279F7089278C010253110923
S11348106801D694C794D694C7949601ABE7B4E1E3
S11348200E94FE4A7C01F694E79480E38E0D0E9478
S11348306801802F24E6E29E801911240E94EA0177
S1134840219602C0C8EED3E0C93B3BE0D30750F247
S113485092C06FEFCE0101970E94320480EC0E9457
S113486054019E01ADECBCEC0E94FE4A8C017C011B
S11348700024EE0CFF1C001CEE0CFF1C001CEF2C93
S1134880F02C0024220F331F001C220F331F001CA6
S1134890232F302DA9E1B4E00E94FE4A9695879516
S11348A0805D0E946801212F30E0ABE7B4E10E94F3
S11348B0FE4A969587953E2D24E6829F3019112451
S11348C0832F0E94EA012196C1348FE1D80708F4AE
S11348D0C0CF61E08AE090E00E94320461E08BE0A6
S11348E090E00E94320461E08CE090E00E94320487
S11348F061E08DE090E00E94320462E08EE090E09E
S11349000E94320462E08FE090E00E94320462E090
S113491080E190E00E94320460E081E190E00E9436
S1134920320461E082E190E00E94320461E083E1BC
S113493090E00E94320461E084E190E00E9432043D
S113494061E085E190E00E94320462E086E190E05B
S11349500E94320462E087E190E00E94320462E047
S113496088E190E00E94320460E089E190E00E94D6
S113497032040E94D7090E94C20A833409F021CF6D
S11349800E94AE01DF91CF911F910F91FF90EF90A4
S1134990DF90CF90BF900895CF93DF9380E390E0B2
S11349A00E94C903C82F893708F0C3E085E497E063
S11349B00E94D00180EC0E94540186E597E00E9499
S11349C0D00168E081E00E94B101D9E2CD9FD12DF0
S11349D01124D295DF7080E38D0F0E94680169E095
S11349E081E00E94B1018C2F94E6D99F8019112493
S11349F00E94EA016CE081E00E94B1018FE597E03A
S1134A000E94D0010E94C20A8833B9F4C837A8F4BE
S1134A10CF5F88EC0E945401D9E2CD9FD12D11249F
S1134A20D295DF7080E38D0F0E9468018C2F94E68D
S1134A30D99F801911240E94EA010E94C20A80337E
S1134A40B9F4C430A8F0C15088EC0E945401D9E2F2
S1134A50CD9FD12D1124D295DF7080E38D0F0E945C
S1134A6068018C2F94E6D99F801911240E94EA01D1
S1134A700E94C20A843431F46C2F80E390E00E94D7
S1134A80320405C00E94C20A833409F0BBCF0E94DD
S1134A90AE01DF91CF9108951F93CF93DF93182F29
S1134AA0811103C085E290E002C081E290E00E949F
S1134AB0C903C82F8FEF8C0F883708F0C4E10E9418
S1134AC0AE01111103C085E697E002C086E797E0C6
S1134AD00E94D00180EC0E94540186E597E00E9478
S1134AE0D00168E081E00E94B101D9E2CD9FD12DCF
S1134AF01124D295DF7080E38D0F0E94680169E074
S1134B0081E00E94B1018C2F94E6D99F8019112471
S1134B100E94EA016BE081E00E94B10187E897E01E
S1134B200E94D0010E94C20A8833D9F4C03FC8F45D
S1134B30CF5F88EC0E945401D9E2CD9FD12D11247E
S1134B40D295DF7080E38D0F0E94680169E081E0F7
S1134B500E94B1018C2F94E6D99F801911240E94E0
S1134B60EA010E94C20A8033D9F4C230C8F0C150AD
S1134B7088EC0E945401D9E2CD9FD12D1124D29505
S1134B80DF7080E38D0F0E94680169E081E00E947C
S1134B90B1018C2F94E6D99F801911240E94EA0157
S1134BA00E94C20A843459F4111103C085E290E0D2
S1134BB002C081E290E06C2F0E94320405C00E9482
S1134BC0C20A833409F0AECF0E94AE01DF91CF91C7
S1134BD01F910895EF92FF920F931F93CF93DF934A
S1134BE0EC017C01F694E794F694E794F694E79448
S1134BF09701A5ECB0E20E94FE4A8C011295029541
S1134C000F7001271F700127602F88E090E00E9439
S1134C10320428EE33E0029FC001039F900D129FDF
S1134C20900D1124C81BD90B7E01F694E794F694D9
S1134C30E7949701ABE7B4E10E94FE4A8C01169514
S1134C400795602F87E090E00E94320424E6209FBD
S1134C50C001219F900D1124C81BD90B9E01ADECFE
S1134C60BCEC0E94FE4A8C01169507951695079593
S1134C7016950795602F86E090E00E943204C801E3
S1134C80880F991F000F111F000F111F000F111F14
S1134C90080F191FBE01601B710B85E090E00E9494
S1134CA03204DF91CF911F910F91FF90EF900895FF
S1134CB0DF92EF92FF920F931F93CF93DF93CDB7C1
S1134CC0DEB728970FB6F894DEBF0FBECDBF88E0DD
S1134CD0EDE8F1E0DE01119601900D928A95E1F77D
S1134CE001E00E94AE018CE897E00E94D00111E03F
S1134CF0112381F060E081E00E94B1018AE997E02C
S1134D000E94D00168E081E00E94B101802F0E94DE
S1134D10EA0110E00E94C20A883321F4003110F441
S1134D200F5F11E00E94C20A803321F4023010F0B8
S1134D30015011E00E94C20A843439F00E94C20A70
S1134D408334B1F60E94AE0163C00E94AE01E02E2E
S1134D50F12C89E0E80EF11CC7010E94C903182F49
S1134D60843008F010E060E080E00E94B10183EA42
S1134D7097E00E94D0016AE080E00E94B101802F98
S1134D800E94EA01DD24D394DD20A9F060E081E0F3
S1134D900E94B101E12FF0E0EE0FFF1F81E090E0EF
S1134DA08C0F9D1FE80FF91F808191810E94D00113
S1134DB00E940302D12C0E94C20A883359F4133092
S1134DC048F481E090E09093A2108093A1101F5FBB
S1134DD0DD24D3940E94C20A803359F4112349F08C
S1134DE081E090E09093A2108093A1101150DD24F3
S1134DF0D3940E94C20A843429F4612FC7010E940B
S1134E0032046FCF0E94C20A833409F0BDCF69CF48
S1134E1028960FB6F894DEBF0FBECDBFDF91CF91B9
S1134E201F910F91FF90EF90DF9008951F93CF9300
S1134E30DF9300D000D0CDB7DEB70E94AE0160E0B2
S1134E4080E00E94B1018BED97E00E94D00160E008
S1134E5081E00E94B1018FEF9AE00E94D00110E03E
S1134E600E94C20A8A3289F4143078F4E1E0F0E056
S1134E70EC0FFD1FE10FF11D81E080831F5F612FA7
S1134E800E94B1018AE20E9468010E94C20A88332A
S1134E9091F4143080F4E1E0F0E0EC0FFD1FE10F39
S1134EA0F11D82E080831F5F612F81E00E94B101C8
S1134EB08AE20E9468010E94C20A803391F414308D
S1134EC080F4E1E0F0E0EC0FFD1FE10FF11D83E061
S1134ED080831F5F612F81E00E94B1018AE20E94FA
S1134EE068010E94C20A833291F4143080F4E1E034
S1134EF0F0E0EC0FFD1FE10FF11D84E080831F5FE4
S1134F00612F81E00E94B1018AE20E94680114309D
S1134F1021F5498128EE33E0429FC001439F900D63
S1134F2011242A81AC0134E6239F400D511D112424
S1134F302B8130E0C901880F991F220F331F220FE4
S1134F40331F220F331F280F391FCA01820F931FEB
S1134F502C81820F911D3EDE05C00E94C20A83345B
S1134F6009F07ECF0E94AE010F900F900F900F902A
S1134F70DF91CF911F910895CF93DF93D82F0E9493
S1134F80AE01D11103C08CEE97E002C08DEF97E023
S1134F900E94D00180EC0E945401D11103C086E22A
S1134FA090E002C089E090E00E94C903C82F80EC21
S1134FB00E945401C11103C08DE098E002C08BE14E
S1134FC098E00E94D0010E9403020E94C20A883322
S1134FD051F480EC0E9454018BE198E00E94D001CE
S1134FE00E940302C1E00E94C20A803351F480ECA3
S1134FF00E9454018DE098E00E94D0010E940302B7
S1135000C0E00E94C20A843409F06CC0D11103C00C
S113501086E290E002C089E090E06C2F0E943204A6
S1135020D11130C0C1115CC087E290E00E94C90375
S11350308F3F99F089E290E00E94C9038F3F69F0A5
S113504088E290E00E94C9038F3F39F08AE290E041
S11350500E94C9038F3F09F043C06AE087E290E0F1
S11350600E94320460E089E290E00E94320462E12E
S113507088E290E00E94320460E08AE290E00E94BC
S113508032042EC0C1112CC081E090E00E94C903FB
S11350908F3F91F082E090E00E94C9038F3F61F05E
S11350A083E090E00E94C9038F3F31F084E090E0F8
S11350B00E94C9038F3FA1F46AE081E090E00E945E
S11350C0320460E082E090E00E94320462E183E016
S11350D090E00E94320460E084E090E00E94320498
S11350E00E94D7090E94C20A833409F06ECF0E943D
S11350F0AE01DF91CF910895DF92EF92FF920F936B
S11351001F93CF93DF9389E498E00E94D0018EE946
S113511092E00E94C903182F8FE992E00E94C9030C
S1135120D82E80EA92E00E94C903E82E81EA92E038
S11351300E94C903F82E82EA92E00E94C903082F54
S1135140123008F011E081E08D1510F4DD24D394C1
S113515081E08E1510F4EE24E39481E08F1510F4B1
S1135160FF24F394023008F001E0D1E0C1E0DD2334
S113517009F483C0C130B9F480E80E94540189E580
S113518098E00E94D00183E698E00E94D00180EC70
S11351900E945401113019F487E298E002C088E3B8
S11351A098E00E94D001C230C1F480E80E9454010A
S11351B089E598E00E94D0018BE698E00E94D00136
S11351C080EC0E94540181E0D81203C087E298E089
S11351D002C088E398E00E94D001C330C1F480E8A3
S11351E00E94540189E598E00E94D00181E798E08B
S11351F00E94D00180EC0E94540181E0E81203C0B7
S113520087E298E002C088E398E00E94D001C430AD
S1135210C1F480E80E94540189E598E00E94D0011D
S113522087E798E00E94D00180EC0E94540181E05D
S1135230F81203C087E298E002C088E398E00E9475
S1135240D001C530C9F480E80E94540189E598E092
S11352500E94D0018DE798E00E94D00180EC0E946A
S11352605401013019F487E298E002C088E398E021
S11352700E94D001D0E001C0D0E00E94C20A833273
S113528021F4C53010F4CF5FD1E00E94C20A8A3203
S113529021F4C23010F0C150D1E00E94C20A883318
S11352A0F1F4C13019F4111101C01F5FC23019F4B7
S11352B0D11001C0D394C33019F4E11001C0E394B8
S11352C0C43019F4F11001C0F394C53029F401116C
S11352D005C00F5FD1E003C0D1E001C0D1E00E945E
S11352E0C20A8033D1F4C13011F411111150C2300B
S11352F011F4D110DA94C33011F4E110EA94C430FB
S113530011F4F110FA94C53029F4002329F0015066
S1135310D1E003C0D1E001C0D1E00E94C20A8434CC
S113532011F5612F8EE992E00E9432046D2D8FE910
S113533092E00E9432046E2D80EA92E00E943204D0
S11353406F2D81EA92E00E943204602F82EA92E09B
S11353500E94320411110CC01092471110923E1198
S11353600E94990F05C00E94C20A833409F0FFCE3F
S11353700E94AE01DF91CF911F910F91FF90EF90AA
S1135380DF900895CF93DF93C1E0D0E00EC0CE014B
S113539084589F4F880F991F880F991F880F991F52
S11353A00E94C9038F3F41F02196C53F81E0D80791
S11353B070F380E090E002C08C2F9D2FDF91CF919D
S11353C00895CF92DF92EF92FF920F931F93CF93A2
S11353D0DF93182F062FD6DF009709F451C011234D
S11353E009F44EC0113108F04BC084589F4FEC01B2
S11353F0CC0FDD1FCC0FDD1FCC0FDD1F7E018FEF27
S1135400E81AF80A612FCE010E9432046E0192E07C
S1135410C90ED11C602FC7010E9432040E949E0451
S11354207E0193E0E90EF11C682FC6010E9432044C
S11354300E94A2048E010C5F1F4F682FC7010E94B7
S113544032040E94A6047E0195E0E90EF11C682F47
S1135450C8010E9432040E94AA040E5F1F4F682FE5
S1135460C7010E9432040E94AE042796682FC80127
S11354700E9432040E94B204682FCE010E943204BA
S1135480DF91CF911F910F91FF90EF90DF90CF901C
S113549008958F929F92AF92BF92CF92DF92EF9234
S11354A0FF920F931F93CF93DF93182FC82FD0E051
S11354B0C458DF4FCC0FDD1FCC0FDD1FCC0FDD1F19
S11354C06E018FEFC81AD80ACE010E94C903E82ED4
S11354D04E0182E0880E911CC6010E94C903A82EC9
S11354E06E0183E0C80ED11CC4010E94C903082FB9
S11354F0C6010E94C903F82E6E0186E0C80ED11CB5
S1135500CE0105960E94C903B82E2796C6010E94B3
S1135510C903D82ECE010E94C903C82F0E94AE0130
S11355208CE40E946801143618F480E30E94680138
S11355301A3018F480E30E946801812F0E94EA0166
S113554088E898E00E94D00189E08E1518F080E385
S11355500E9468018E2D0E94EA0180E20E94680187
S1135560A11003C084EB97E002C083E898E00E9496
S1135570D00180EC0E9454010D3018F084EF800FAC
S113558005C0011102C08CE001C0802F0E94EA0115
S11355908AE30E94680189E08F1518F080E30E9475
S11355A068018F2D0E94EA010C3018F085EF96E017
S11355B002C088EF96E00E94D00183EB9AE00E943B
S11355C0D0018B2D0E94EA018FE20E9468018D2D8B
S11355D00E94EA018FE20E9468018C2F0E94EA0176
S11355E0DF91CF911F910F91FF90EF90DF90CF90BB
S11355F0BF90AF909F908F900895EF92FF920F937A
S11356001F93CF930E94AE018BE898E00E94D001D3
S1135610B9DE009729F07C0121E0E21AF10806C006
S11356200F2EF4EFEF2EFF24F394F02D80EC0E9464
S11356305401E114F10439F489E998E00E94D0019D
S11356400E94AE0121C08701C1E0CC2319F0802F54
S113565020DFC0E00E94C20A833231F40E151F0518
S113566018F40F5F1F4FC1E00E94C20A8A3231F45E
S11356700230110518F001501109C1E00E94C20A5C
S1135680833419F70E94AE01CF911F910F91FF90BF
S1135690EF900895EF92FF920F931F93CF93DF93B0
S11356A0C1E00E94AE0180E80E9454018AEA98E0B9
S11356B00E94D00180EC0E9454018BEB98E00E9480
S11356C0D00167E081E00E94B1018C2F0E94EA01C1
S11356D00E94C20A883319F4C03108F4CF5F0E94D3
S11356E0C20A803319F4C23008F0C1500E94C20AC1
S11356F0843439F00E94C20A8334E1F60E94AE0178
S113570079C00E94AE01EC2EF12C80E3E80EF11C6E
S1135710C7010E94C903893738F060E0C7010E94BD
S1135720320400E010E005C0C7010E94C903082F3D
S113573010E080E80E945401C630B9F48C2F0E9416
S1135740080B823091F483EC98E00E94D00181E24E
S113575090E00E94C903D82F082F10E084EC0E9427
S113576054018D2F0E94EA010AC084ED98E00E9442
S1135770D00184EC0E945401802F0E94EA0187E842
S113578097E00E94D001D1E0C63051F1DD2359F0F9
S113579084EC0E945401802F0E94EA0187E897E07C
S11357A00E94D001D0E00E94C20A883331F40A3545
S11357B0110518F40F5F1F4FD1E00E94C20A803315
S11357C031F40115110519F001501109D1E00E94BD
S11357D0C20A843451F4602FC7010E94320461CF9D
S11357E00E94C20A843409F45CCF0E94C20A833442
S11357F059F657CFDF91CF911F910F91FF90EF9002
S11358000895CF930E94AE0180EE98E00E94D001EB
S113581080EC0E94540181EF98E00E94D0010E9424
S1135820C20A833419F40E94AE0157C08434B9F714
S113583081E00E946C0F80EC0E94540180E099E0AA
S11358400E94D001CEE107C085EC0E9454018C2F48
S11358500E94EA01C150C111F7CF80EC0E945401AB
S11358608FE099E00E94D0011BC08C2F0E94080B8E
S1135870833089F08C2F0E94B11F019761F481E07D
S11358800E947B0F81E00E948A0F80E00E947B0FC0
S113589080E00E948A0FCF5F01C0C1E0C93028F3C5
S11358A00E94C20A8823C9F381E00E94300F81E07C
S11358B00E943F0F81E00E948A0F0E94D90E80E06F
S11358C00E94300F80E00E943F0F80E00E948A0F08
S11358D080E00E946C0F0E94D709CF910895E0E008
S11358E008C0AE2FB0E0AA56BE4F9C91981719F08D
S11358F0EF5FE532B0F3613021F4EF5FE53228F475
S113590007C0EE2321F0E15003C0E0E001C0E4E26F
S1135910F0E0EA56FE4F8081089590E007C0FA0156
S1135920E90FF11D3081381719F09F5F9217B8F312
S1135930613021F49F5F921740F408C0911103C0B5
S11359409FEF920F03C0915001C090E0FA01E90F5C
S1135950F11D80810895FF920F931F93CF93DF93DE
S11359608C01D62FF42E80EC0E945401C0E016C0A6
S1135970CD130DC0FF2039F0F801EC0FF11D80812B
S11359800E9468010AC080E20E94680106C0F80112
S1135990EC0FF11D80810E946801CF5FC03140F39C
S11359A0DF91CF911F910F91FF900895EF92FF9295
S11359B00F931F93CF93DF93CDB7DEB761970FB6E5
S11359C0F894DEBF0FBECDBFF12C1AC00F2D10E02E
S11359D0C80188589D4F0E94C903E1E0F0E0EC0F34
S11359E0FD1FE00FF11F808381508E3F40F0E1E006
S11359F0F0E0EC0FFD1FE00FF11F80E28083F394D1
S1135A008FE08F1518F7198A0E94AE0180E80E9472
S1135A10540180E299E00E94D0010E94AE01FF246B
S1135A20F394E12C00E080E80E9454010A3040F431
S1135A3080E20E94680180E3800F0E94680115C023
S1135A401DEC019F112D112416951695169580E3D2
S1135A50810F0E946801110F812F880F880F180F82
S1135A60802F811B805D0E9468018EE299E00E9474
S1135A70D0014F2D602FCE0101966DDF0E94C20A26
S1135A80882309F469C08033E1F028F4833259F1A2
S1135A908A3229F15DC0833409F44EC08434C1F1E3
S1135AA0883309F055C0EE24E394F12CEC0EFD1E6E
S1135AB0E00EF11C61E0F701808111DFF7018083C2
S1135AC047C0EE24E394F12CEC0EFD1EE00EF11C15
S1135AD060E0F701808103DFF701808339C0002390
S1135AE0B9F1015035C0802F90E00F978CF50F5F0E
S1135AF02FC0812F90E0E1E0F0E0EC0FFD1FE80FF4
S1135B00F91F608188589D4F0E9432041F5F01C0B5
S1135B1010E0103170F30E94D82181E080931101CC
S1135B200E94AE0180E80E94540185E399E00E943E
S1135B30D0010E94AE0124C00E94AE0180E80E9400
S1135B40540180E499E00E94D0010E94AE0118C083
S1135B50FF24F394E12C67CFE39481E0F11080E01B
S1135B60F82EF6E9FE1508F05ECF0E94AE0180E83B
S1135B700E9454018EE499E00E94D0010E94AE017B
S1135B8061960FB6F894DEBF0FBECDBFDF91CF9103
S1135B901F910F91FF90EF900895EF92FF920F9352
S1135BA01F93CF93DF937C01162F042F603118F0DD
S1135BB0D1EFD60F01C0D0E08D2F90E04096422F58
S1135BC050E04817590714F4D0EFD20F80EC0E942C
S1135BD05401C0E018C08C2F8D0F18130DC0002382
S1135BE039F0F701E80FF11D80810E9468010AC0B5
S1135BF080E20E94680106C0F701E80FF11D808170
S1135C000E946801CF5FC03130F3DF91CF911F91C3
S1135C100F91FF90EF900895CF93DF93EB010E94D3
S1135C20230480E20E94E303CE010E9423048AE05D
S1135C300E94E3030E94AE01DF91CF9108958F92F9
S1135C409F92AF92BF92CF92DF92EF92FF921F93F7
S1135C50CF93DF937C015B014A010E94AE0180E88F
S1135C600E945401C7010E94D00165E080E00E94B7
S1135C70B10189E599E00E94BB01C12CD12CC1E09E
S1135C80D0E058C0C5010E94C903182F8130E1F447
S1135C9080EC0E94540186E699E00E94D00181E0E4
S1135CA0C816D10461F5C7010E94230487E799E06F
S1135CB00E9423048EE799E00E9423048AE00E9454
S1135CC0E303C12CD12C1BC080EC0E94540183E857
S1135CD099E00E94D00181E0C816D10481F4C70183
S1135CE00E94230487E799E00E94230484E999E051
